{
  "_format": "hh-sol-artifact-1",
  "contractName": "WhiteList",
  "sourceName": "contracts/WhiteList.sol",
  "abi": [
    {
      "inputs": [
        {
          "internalType": "uint256",
          "name": "_maxNumberOfWhiteListed",
          "type": "uint256"
        }
      ],
      "stateMutability": "nonpayable",
      "type": "constructor"
    },
    {
      "inputs": [],
      "name": "checkWhitListed",
      "outputs": [],
      "stateMutability": "nonpayable",
      "type": "function"
    },
    {
      "inputs": [],
      "name": "numberOfUser",
      "outputs": [
        {
          "internalType": "uint256",
          "name": "_value",
          "type": "uint256"
        }
      ],
      "stateMutability": "view",
      "type": "function"
    }
  ],
  "bytecode": "0x608060405234801561001057600080fd5b506040516103d13803806103d183398181016040528101906100329190610054565b806001819055505061009e565b60008151905061004e81610087565b92915050565b60006020828403121561006657600080fd5b60006100748482850161003f565b91505092915050565b6000819050919050565b6100908161007d565b811461009b57600080fd5b50565b610324806100ad6000396000f3fe608060405234801561001057600080fd5b50600436106100365760003560e01c80639b9c7f571461003b578063d78faba514610059575b600080fd5b610043610063565b6040516100509190610266565b60405180910390f35b61006161006f565b005b60008060000154905081565b600260003373ffffffffffffffffffffffffffffffffffffffff1673ffffffffffffffffffffffffffffffffffffffff16815260200190815260200160002060009054906101000a900460ff16156100fc576040517f08c379a00000000000000000000000000000000000000000000000000000000081526004016100f390610226565b60405180910390fd5b60015461010960006101ad565b10610149576040517f08c379a000000000000000000000000000000000000000000000000000000000815260040161014090610246565b60405180910390fd5b6001600260003373ffffffffffffffffffffffffffffffffffffffff1673ffffffffffffffffffffffffffffffffffffffff16815260200190815260200160002060006101000a81548160ff0219169083151502179055506101ab60006101bb565b565b600081600001549050919050565b6001816000016000828254019250508190555050565b60006101de601e83610281565b91506101e98261029c565b602082019050919050565b6000610201601d83610281565b915061020c826102c5565b602082019050919050565b61022081610292565b82525050565b6000602082019050818103600083015261023f816101d1565b9050919050565b6000602082019050818103600083015261025f816101f4565b9050919050565b600060208201905061027b6000830184610217565b92915050565b600082825260208201905092915050565b6000819050919050565b7f596f752061726520616c72656164792061207768697465206c69737465640000600082015250565b7f536f72727920616c6c2073706f7473206172652066696c6c656420212100000060008201525056fea264697066735822122048b08cba6004629e2a133a1e2a71124786c21984fde801592e2ebb20f92d620f64736f6c63430008040033",
  "linkReferences": {},
  "deployedLinkReferences": {}
}